{
  "_format": "hh-sol-artifact-1",
  "contractName": "AskAndEarn",
  "sourceName": "contracts/AskAndEarn.sol",
  "abi": [
    {
      "inputs": [
        {
          "internalType": "address",
          "name": "_bit",
          "type": "address"
        },
        {
          "internalType": "address",
          "name": "_nft",
          "type": "address"
        }
      ],
      "stateMutability": "nonpayable",
      "type": "constructor"
    },
    {
      "anonymous": false,
      "inputs": [
        {
          "indexed": true,
          "internalType": "address",
          "name": "previousOwner",
          "type": "address"
        },
        {
          "indexed": true,
          "internalType": "address",
          "name": "newOwner",
          "type": "address"
        }
      ],
      "name": "OwnershipTransferred",
      "type": "event"
    },
    {
      "inputs": [
        {
          "internalType": "bool",
          "name": "_paidByOwner",
          "type": "bool"
        }
      ],
      "name": "LuckyDraw",
      "outputs": [
        {
          "internalType": "bool",
          "name": "",
          "type": "bool"
        }
      ],
      "stateMutability": "nonpayable",
      "type": "function"
    },
    {
      "inputs": [],
      "name": "currentRound",
      "outputs": [
        {
          "internalType": "uint256",
          "name": "",
          "type": "uint256"
        }
      ],
      "stateMutability": "view",
      "type": "function"
    },
    {
      "inputs": [],
      "name": "getPoolPrize",
      "outputs": [
        {
          "internalType": "uint256",
          "name": "",
          "type": "uint256"
        }
      ],
      "stateMutability": "view",
      "type": "function"
    },
    {
      "inputs": [],
      "name": "minTokenperPlay",
      "outputs": [
        {
          "internalType": "uint256",
          "name": "",
          "type": "uint256"
        }
      ],
      "stateMutability": "view",
      "type": "function"
    },
    {
      "inputs": [],
      "name": "owner",
      "outputs": [
        {
          "internalType": "address",
          "name": "",
          "type": "address"
        }
      ],
      "stateMutability": "view",
      "type": "function"
    },
    {
      "inputs": [
        {
          "internalType": "uint256",
          "name": "_paidAmount",
          "type": "uint256"
        }
      ],
      "name": "play",
      "outputs": [
        {
          "internalType": "bool",
          "name": "",
          "type": "bool"
        }
      ],
      "stateMutability": "nonpayable",
      "type": "function"
    },
    {
      "inputs": [],
      "name": "prize",
      "outputs": [
        {
          "internalType": "uint256",
          "name": "",
          "type": "uint256"
        }
      ],
      "stateMutability": "view",
      "type": "function"
    },
    {
      "inputs": [],
      "name": "renounceOwnership",
      "outputs": [],
      "stateMutability": "nonpayable",
      "type": "function"
    },
    {
      "inputs": [
        {
          "internalType": "uint256",
          "name": "_minToken",
          "type": "uint256"
        }
      ],
      "name": "setMinEntryAmount",
      "outputs": [],
      "stateMutability": "nonpayable",
      "type": "function"
    },
    {
      "inputs": [
        {
          "internalType": "uint256",
          "name": "_newPrize",
          "type": "uint256"
        }
      ],
      "name": "setPrize",
      "outputs": [],
      "stateMutability": "nonpayable",
      "type": "function"
    },
    {
      "inputs": [],
      "name": "totalPlayer",
      "outputs": [
        {
          "internalType": "uint256",
          "name": "",
          "type": "uint256"
        }
      ],
      "stateMutability": "view",
      "type": "function"
    },
    {
      "inputs": [
        {
          "internalType": "address",
          "name": "newOwner",
          "type": "address"
        }
      ],
      "name": "transferOwnership",
      "outputs": [],
      "stateMutability": "nonpayable",
      "type": "function"
    },
    {
      "inputs": [
        {
          "internalType": "address",
          "name": "",
          "type": "address"
        }
      ],
      "name": "userContribution",
      "outputs": [
        {
          "internalType": "uint256",
          "name": "",
          "type": "uint256"
        }
      ],
      "stateMutability": "view",
      "type": "function"
    },
    {
      "inputs": [
        {
          "internalType": "uint256",
          "name": "",
          "type": "uint256"
        }
      ],
      "name": "userIndex",
      "outputs": [
        {
          "internalType": "address",
          "name": "",
          "type": "address"
        }
      ],
      "stateMutability": "view",
      "type": "function"
    },
    {
      "inputs": [
        {
          "internalType": "uint256",
          "name": "",
          "type": "uint256"
        }
      ],
      "name": "winnerHistory",
      "outputs": [
        {
          "internalType": "address",
          "name": "",
          "type": "address"
        }
      ],
      "stateMutability": "view",
      "type": "function"
    },
    {
      "inputs": [],
      "name": "winnerlist",
      "outputs": [
        {
          "internalType": "address[]",
          "name": "",
          "type": "address[]"
        }
      ],
      "stateMutability": "nonpayable",
      "type": "function"
    }
  ],
  "bytecode": "0x6080604052600a6003553480156200001657600080fd5b50604051620019dc380380620019dc83398181016040528101906200003c91906200021c565b6200005c62000050620000e660201b60201c565b620000ee60201b60201c565b81600160006101000a81548173ffffffffffffffffffffffffffffffffffffffff021916908373ffffffffffffffffffffffffffffffffffffffff16021790555080600260006101000a81548173ffffffffffffffffffffffffffffffffffffffff021916908373ffffffffffffffffffffffffffffffffffffffff160217905550505062000263565b600033905090565b60008060009054906101000a900473ffffffffffffffffffffffffffffffffffffffff169050816000806101000a81548173ffffffffffffffffffffffffffffffffffffffff021916908373ffffffffffffffffffffffffffffffffffffffff1602179055508173ffffffffffffffffffffffffffffffffffffffff168173ffffffffffffffffffffffffffffffffffffffff167f8be0079c531659141344cd1fd0a4f28419497f9722a3daafe3b4186f6b6457e060405160405180910390a35050565b600080fd5b600073ffffffffffffffffffffffffffffffffffffffff82169050919050565b6000620001e482620001b7565b9050919050565b620001f681620001d7565b81146200020257600080fd5b50565b6000815190506200021681620001eb565b92915050565b60008060408385031215620002365762000235620001b2565b5b6000620002468582860162000205565b9250506020620002598582860162000205565b9150509250929050565b61176980620002736000396000f3fe608060405234801561001057600080fd5b50600436106101005760003560e01c80638a19c8bc11610097578063c494a08011610066578063c494a080146102af578063db5e2d02146102cd578063e3ac5d26146102eb578063f2fde38b1461030957610100565b80638a19c8bc146102255780638da5cb5b14610243578063999cb5e214610261578063c37dfd6e1461027f57610100565b80636ca7f3ba116100d35780636ca7f3ba146101b3578063715018a6146101cf57806375964b55146101d95780637d600b721461020957610100565b806316ad0672146101055780633de3a97d1461013557806354da8f9d146101535780636898f82b14610183575b600080fd5b61011f600480360381019061011a9190611011565b610325565b60405161012c9190611057565b60405180910390f35b61013d61033d565b60405161014a9190611057565b60405180910390f35b61016d600480360381019061016891906110aa565b610343565b60405161017a91906110e6565b60405180910390f35b61019d6004803603810190610198919061112d565b61076c565b6040516101aa91906110e6565b60405180910390f35b6101cd60048036038101906101c8919061112d565b610a6b565b005b6101d7610a7d565b005b6101f360048036038101906101ee919061112d565b610a91565b6040516102009190611169565b60405180910390f35b610223600480360381019061021e919061112d565b610ac4565b005b61022d610ad6565b60405161023a9190611057565b60405180910390f35b61024b610adc565b6040516102589190611169565b60405180910390f35b610269610b05565b6040516102769190611242565b60405180910390f35b6102996004803603810190610294919061112d565b610c4b565b6040516102a69190611169565b60405180910390f35b6102b7610c7e565b6040516102c49190611057565b60405180910390f35b6102d5610c84565b6040516102e29190611057565b60405180910390f35b6102f3610ddb565b6040516103009190611057565b60405180910390f35b610323600480360381019061031e9190611011565b610de1565b005b60076020528060005260406000206000915090505481565b60035481565b600061034d610e64565b600060045460014361035f9190611293565b4042604051602001610372929190611313565b6040516020818303038152906040528051906020012060001c610395919061136e565b905060006008600083815260200190815260200160002060009054906101000a900473ffffffffffffffffffffffffffffffffffffffff1690508060096000600554815260200190815260200160002060006101000a81548173ffffffffffffffffffffffffffffffffffffffff021916908373ffffffffffffffffffffffffffffffffffffffff16021790555083156105c157600654600160009054906101000a900473ffffffffffffffffffffffffffffffffffffffff1673ffffffffffffffffffffffffffffffffffffffff166370a08231610472610adc565b6040518263ffffffff1660e01b815260040161048e9190611169565b602060405180830381865afa1580156104ab573d6000803e3d6000fd5b505050506040513d601f19601f820116820180604052508101906104cf91906113b4565b1015610510576040517f08c379a00000000000000000000000000000000000000000000000000000000081526004016105079061143e565b60405180910390fd5b600160009054906101000a900473ffffffffffffffffffffffffffffffffffffffff1673ffffffffffffffffffffffffffffffffffffffff166323b872dd610556610adc565b836006546040518463ffffffff1660e01b81526004016105789392919061145e565b6020604051808303816000875af1158015610597573d6000803e3d6000fd5b505050506040513d601f19601f820116820180604052508101906105bb91906114aa565b50610747565b600654600160009054906101000a900473ffffffffffffffffffffffffffffffffffffffff1673ffffffffffffffffffffffffffffffffffffffff166370a08231306040518263ffffffff1660e01b815260040161061f9190611169565b602060405180830381865afa15801561063c573d6000803e3d6000fd5b505050506040513d601f19601f8201168201806040525081019061066091906113b4565b10156106a1576040517f08c379a00000000000000000000000000000000000000000000000000000000081526004016106989061143e565b60405180910390fd5b600160009054906101000a900473ffffffffffffffffffffffffffffffffffffffff1673ffffffffffffffffffffffffffffffffffffffff166323b872dd30836006546040518463ffffffff1660e01b81526004016107029392919061145e565b6020604051808303816000875af1158015610721573d6000803e3d6000fd5b505050506040513d601f19601f8201168201806040525081019061074591906114aa565b505b60016005600082825461075a91906114d7565b92505081905550600192505050919050565b60006003548210156107b3576040517f08c379a00000000000000000000000000000000000000000000000000000000081526004016107aa90611557565b60405180910390fd5b600073ffffffffffffffffffffffffffffffffffffffff163373ffffffffffffffffffffffffffffffffffffffff1603610822576040517f08c379a0000000000000000000000000000000000000000000000000000000008152600401610819906115c3565b60405180910390fd5b6000600760003373ffffffffffffffffffffffffffffffffffffffff1673ffffffffffffffffffffffffffffffffffffffff168152602001908152602001600020540361096957600260009054906101000a900473ffffffffffffffffffffffffffffffffffffffff1673ffffffffffffffffffffffffffffffffffffffff1663a1448194336004546040518363ffffffff1660e01b81526004016108c89291906115e3565b600060405180830381600087803b1580156108e257600080fd5b505af11580156108f6573d6000803e3d6000fd5b505050503360086000600454815260200190815260200160002060006101000a81548173ffffffffffffffffffffffffffffffffffffffff021916908373ffffffffffffffffffffffffffffffffffffffff16021790555060016004600082825461096191906114d7565b925050819055505b600160009054906101000a900473ffffffffffffffffffffffffffffffffffffffff1673ffffffffffffffffffffffffffffffffffffffff166323b872dd3330856040518463ffffffff1660e01b81526004016109c89392919061145e565b6020604051808303816000875af11580156109e7573d6000803e3d6000fd5b505050506040513d601f19601f82011682018060405250810190610a0b91906114aa565b5081600760003373ffffffffffffffffffffffffffffffffffffffff1673ffffffffffffffffffffffffffffffffffffffff1681526020019081526020016000206000828254610a5b91906114d7565b9250508190555060019050919050565b610a73610e64565b8060068190555050565b610a85610e64565b610a8f6000610ee2565b565b60096020528060005260406000206000915054906101000a900473ffffffffffffffffffffffffffffffffffffffff1681565b610acc610e64565b8060038190555050565b60055481565b60008060009054906101000a900473ffffffffffffffffffffffffffffffffffffffff16905090565b606060005b600554811015610bbe57600a6009600083815260200190815260200160002060009054906101000a900473ffffffffffffffffffffffffffffffffffffffff169080600181540180825580915050600190039060005260206000200160009091909190916101000a81548173ffffffffffffffffffffffffffffffffffffffff021916908373ffffffffffffffffffffffffffffffffffffffff160217905550600181610bb791906114d7565b9050610b0a565b50600a805480602002602001604051908101604052809291908181526020018280548015610c4157602002820191906000526020600020905b8160009054906101000a900473ffffffffffffffffffffffffffffffffffffffff1673ffffffffffffffffffffffffffffffffffffffff1681526020019060010190808311610bf7575b5050505050905090565b60086020528060005260406000206000915054906101000a900473ffffffffffffffffffffffffffffffffffffffff1681565b60045481565b600080600160009054906101000a900473ffffffffffffffffffffffffffffffffffffffff1673ffffffffffffffffffffffffffffffffffffffff1663dd62ed3e610ccd610adc565b306040518363ffffffff1660e01b8152600401610ceb92919061160c565b602060405180830381865afa158015610d08573d6000803e3d6000fd5b505050506040513d601f19601f82011682018060405250810190610d2c91906113b4565b905080600160009054906101000a900473ffffffffffffffffffffffffffffffffffffffff1673ffffffffffffffffffffffffffffffffffffffff166370a08231306040518263ffffffff1660e01b8152600401610d8a9190611169565b602060405180830381865afa158015610da7573d6000803e3d6000fd5b505050506040513d601f19601f82011682018060405250810190610dcb91906113b4565b610dd591906114d7565b91505090565b60065481565b610de9610e64565b600073ffffffffffffffffffffffffffffffffffffffff168173ffffffffffffffffffffffffffffffffffffffff1603610e58576040517f08c379a0000000000000000000000000000000000000000000000000000000008152600401610e4f906116a7565b60405180910390fd5b610e6181610ee2565b50565b610e6c610fa6565b73ffffffffffffffffffffffffffffffffffffffff16610e8a610adc565b73ffffffffffffffffffffffffffffffffffffffff1614610ee0576040517f08c379a0000000000000000000000000000000000000000000000000000000008152600401610ed790611713565b60405180910390fd5b565b60008060009054906101000a900473ffffffffffffffffffffffffffffffffffffffff169050816000806101000a81548173ffffffffffffffffffffffffffffffffffffffff021916908373ffffffffffffffffffffffffffffffffffffffff1602179055508173ffffffffffffffffffffffffffffffffffffffff168173ffffffffffffffffffffffffffffffffffffffff167f8be0079c531659141344cd1fd0a4f28419497f9722a3daafe3b4186f6b6457e060405160405180910390a35050565b600033905090565b600080fd5b600073ffffffffffffffffffffffffffffffffffffffff82169050919050565b6000610fde82610fb3565b9050919050565b610fee81610fd3565b8114610ff957600080fd5b50565b60008135905061100b81610fe5565b92915050565b60006020828403121561102757611026610fae565b5b600061103584828501610ffc565b91505092915050565b6000819050919050565b6110518161103e565b82525050565b600060208201905061106c6000830184611048565b92915050565b60008115159050919050565b61108781611072565b811461109257600080fd5b50565b6000813590506110a48161107e565b92915050565b6000602082840312156110c0576110bf610fae565b5b60006110ce84828501611095565b91505092915050565b6110e081611072565b82525050565b60006020820190506110fb60008301846110d7565b92915050565b61110a8161103e565b811461111557600080fd5b50565b60008135905061112781611101565b92915050565b60006020828403121561114357611142610fae565b5b600061115184828501611118565b91505092915050565b61116381610fd3565b82525050565b600060208201905061117e600083018461115a565b92915050565b600081519050919050565b600082825260208201905092915050565b6000819050602082019050919050565b6111b981610fd3565b82525050565b60006111cb83836111b0565b60208301905092915050565b6000602082019050919050565b60006111ef82611184565b6111f9818561118f565b9350611204836111a0565b8060005b8381101561123557815161121c88826111bf565b9750611227836111d7565b925050600181019050611208565b5085935050505092915050565b6000602082019050818103600083015261125c81846111e4565b905092915050565b7f4e487b7100000000000000000000000000000000000000000000000000000000600052601160045260246000fd5b600061129e8261103e565b91506112a98361103e565b92508282039050818111156112c1576112c0611264565b5b92915050565b6000819050919050565b6000819050919050565b6112ec6112e7826112c7565b6112d1565b82525050565b6000819050919050565b61130d6113088261103e565b6112f2565b82525050565b600061131f82856112db565b60208201915061132f82846112fc565b6020820191508190509392505050565b7f4e487b7100000000000000000000000000000000000000000000000000000000600052601260045260246000fd5b60006113798261103e565b91506113848361103e565b9250826113945761139361133f565b5b828206905092915050565b6000815190506113ae81611101565b92915050565b6000602082840312156113ca576113c9610fae565b5b60006113d88482850161139f565b91505092915050565b600082825260208201905092915050565b7f4e6f7420656e6f7567682062616c616e636520666f72207072697a6521000000600082015250565b6000611428601d836113e1565b9150611433826113f2565b602082019050919050565b600060208201905081810360008301526114578161141b565b9050919050565b6000606082019050611473600083018661115a565b611480602083018561115a565b61148d6040830184611048565b949350505050565b6000815190506114a48161107e565b92915050565b6000602082840312156114c0576114bf610fae565b5b60006114ce84828501611495565b91505092915050565b60006114e28261103e565b91506114ed8361103e565b925082820190508082111561150557611504611264565b5b92915050565b7f4e6f742073756666696369656e7420616d6f756e7420746f20706c6179210000600082015250565b6000611541601e836113e1565b915061154c8261150b565b602082019050919050565b6000602082019050818103600083015261157081611534565b9050919050565b7f496e76616c696420616464726573730000000000000000000000000000000000600082015250565b60006115ad600f836113e1565b91506115b882611577565b602082019050919050565b600060208201905081810360008301526115dc816115a0565b9050919050565b60006040820190506115f8600083018561115a565b6116056020830184611048565b9392505050565b6000604082019050611621600083018561115a565b61162e602083018461115a565b9392505050565b7f4f776e61626c653a206e6577206f776e657220697320746865207a65726f206160008201527f6464726573730000000000000000000000000000000000000000000000000000602082015250565b60006116916026836113e1565b915061169c82611635565b604082019050919050565b600060208201905081810360008301526116c081611684565b9050919050565b7f4f776e61626c653a2063616c6c6572206973206e6f7420746865206f776e6572600082015250565b60006116fd6020836113e1565b9150611708826116c7565b602082019050919050565b6000602082019050818103600083015261172c816116f0565b905091905056fea2646970667358221220ee5d9ac174074cda6c3e90c540529b4941f0050ad0258bfeea17f3898000191764736f6c63430008120033",
  "linkReferences": {},
  "deployedLinkReferences": {}
}