{
  "_format": "hh-sol-artifact-1",
  "contractName": "AskAndEarn",
  "sourceName": "contracts/AskAndEarn.sol",
  "abi": [
    {
      "inputs": [
        {
          "internalType": "address",
          "name": "_bit",
          "type": "address"
        },
        {
          "internalType": "address",
          "name": "_nft",
          "type": "address"
        }
      ],
      "stateMutability": "nonpayable",
      "type": "constructor"
    },
    {
      "anonymous": false,
      "inputs": [
        {
          "indexed": true,
          "internalType": "address",
          "name": "previousOwner",
          "type": "address"
        },
        {
          "indexed": true,
          "internalType": "address",
          "name": "newOwner",
          "type": "address"
        }
      ],
      "name": "OwnershipTransferred",
      "type": "event"
    },
    {
      "inputs": [
        {
          "internalType": "bool",
          "name": "_paidByOwner",
          "type": "bool"
        }
      ],
      "name": "LuckyDraw",
      "outputs": [
        {
          "internalType": "bool",
          "name": "",
          "type": "bool"
        }
      ],
      "stateMutability": "nonpayable",
      "type": "function"
    },
    {
      "inputs": [],
      "name": "currentRound",
      "outputs": [
        {
          "internalType": "uint256",
          "name": "",
          "type": "uint256"
        }
      ],
      "stateMutability": "view",
      "type": "function"
    },
    {
      "inputs": [],
      "name": "getPoolPrize",
      "outputs": [
        {
          "internalType": "uint256",
          "name": "",
          "type": "uint256"
        }
      ],
      "stateMutability": "view",
      "type": "function"
    },
    {
      "inputs": [],
      "name": "minTokenperPlay",
      "outputs": [
        {
          "internalType": "uint256",
          "name": "",
          "type": "uint256"
        }
      ],
      "stateMutability": "view",
      "type": "function"
    },
    {
      "inputs": [],
      "name": "owner",
      "outputs": [
        {
          "internalType": "address",
          "name": "",
          "type": "address"
        }
      ],
      "stateMutability": "view",
      "type": "function"
    },
    {
      "inputs": [
        {
          "internalType": "uint256",
          "name": "_paidAmount",
          "type": "uint256"
        }
      ],
      "name": "play",
      "outputs": [
        {
          "internalType": "bool",
          "name": "",
          "type": "bool"
        }
      ],
      "stateMutability": "nonpayable",
      "type": "function"
    },
    {
      "inputs": [],
      "name": "playTest",
      "outputs": [
        {
          "internalType": "bool",
          "name": "",
          "type": "bool"
        }
      ],
      "stateMutability": "nonpayable",
      "type": "function"
    },
    {
      "inputs": [],
      "name": "prize",
      "outputs": [
        {
          "internalType": "uint256",
          "name": "",
          "type": "uint256"
        }
      ],
      "stateMutability": "view",
      "type": "function"
    },
    {
      "inputs": [],
      "name": "renounceOwnership",
      "outputs": [],
      "stateMutability": "nonpayable",
      "type": "function"
    },
    {
      "inputs": [
        {
          "internalType": "uint256",
          "name": "_minToken",
          "type": "uint256"
        }
      ],
      "name": "setMinEntryAmount",
      "outputs": [],
      "stateMutability": "nonpayable",
      "type": "function"
    },
    {
      "inputs": [
        {
          "internalType": "uint256",
          "name": "_newPrize",
          "type": "uint256"
        }
      ],
      "name": "setPrize",
      "outputs": [],
      "stateMutability": "nonpayable",
      "type": "function"
    },
    {
      "inputs": [],
      "name": "totalPlayer",
      "outputs": [
        {
          "internalType": "uint256",
          "name": "",
          "type": "uint256"
        }
      ],
      "stateMutability": "view",
      "type": "function"
    },
    {
      "inputs": [
        {
          "internalType": "address",
          "name": "newOwner",
          "type": "address"
        }
      ],
      "name": "transferOwnership",
      "outputs": [],
      "stateMutability": "nonpayable",
      "type": "function"
    },
    {
      "inputs": [
        {
          "internalType": "address",
          "name": "",
          "type": "address"
        }
      ],
      "name": "userContribution",
      "outputs": [
        {
          "internalType": "uint256",
          "name": "",
          "type": "uint256"
        }
      ],
      "stateMutability": "view",
      "type": "function"
    },
    {
      "inputs": [
        {
          "internalType": "uint256",
          "name": "",
          "type": "uint256"
        }
      ],
      "name": "userIndex",
      "outputs": [
        {
          "internalType": "address",
          "name": "",
          "type": "address"
        }
      ],
      "stateMutability": "view",
      "type": "function"
    },
    {
      "inputs": [
        {
          "internalType": "uint256",
          "name": "",
          "type": "uint256"
        }
      ],
      "name": "winnerHistory",
      "outputs": [
        {
          "internalType": "address",
          "name": "",
          "type": "address"
        }
      ],
      "stateMutability": "view",
      "type": "function"
    },
    {
      "inputs": [],
      "name": "winnerlist",
      "outputs": [
        {
          "internalType": "address[]",
          "name": "",
          "type": "address[]"
        }
      ],
      "stateMutability": "nonpayable",
      "type": "function"
    }
  ],
  "bytecode": "0x6080604052600a6003553480156200001657600080fd5b5060405162001b1b38038062001b1b83398181016040528101906200003c91906200021c565b6200005c62000050620000e660201b60201c565b620000ee60201b60201c565b81600160006101000a81548173ffffffffffffffffffffffffffffffffffffffff021916908373ffffffffffffffffffffffffffffffffffffffff16021790555080600260006101000a81548173ffffffffffffffffffffffffffffffffffffffff021916908373ffffffffffffffffffffffffffffffffffffffff160217905550505062000263565b600033905090565b60008060009054906101000a900473ffffffffffffffffffffffffffffffffffffffff169050816000806101000a81548173ffffffffffffffffffffffffffffffffffffffff021916908373ffffffffffffffffffffffffffffffffffffffff1602179055508173ffffffffffffffffffffffffffffffffffffffff168173ffffffffffffffffffffffffffffffffffffffff167f8be0079c531659141344cd1fd0a4f28419497f9722a3daafe3b4186f6b6457e060405160405180910390a35050565b600080fd5b600073ffffffffffffffffffffffffffffffffffffffff82169050919050565b6000620001e482620001b7565b9050919050565b620001f681620001d7565b81146200020257600080fd5b50565b6000815190506200021681620001eb565b92915050565b60008060408385031215620002365762000235620001b2565b5b6000620002468582860162000205565b9250506020620002598582860162000205565b9150509250929050565b6118a880620002736000396000f3fe608060405234801561001057600080fd5b506004361061010b5760003560e01c80638a19c8bc116100a2578063c39fadba11610071578063c39fadba146102ba578063c494a080146102d8578063db5e2d02146102f6578063e3ac5d2614610314578063f2fde38b146103325761010b565b80638a19c8bc146102305780638da5cb5b1461024e578063999cb5e21461026c578063c37dfd6e1461028a5761010b565b80636ca7f3ba116100de5780636ca7f3ba146101be578063715018a6146101da57806375964b55146101e45780637d600b72146102145761010b565b806316ad0672146101105780633de3a97d1461014057806354da8f9d1461015e5780636898f82b1461018e575b600080fd5b61012a60048036038101906101259190611150565b61034e565b6040516101379190611196565b60405180910390f35b610148610366565b6040516101559190611196565b60405180910390f35b610178600480360381019061017391906111e9565b61036c565b6040516101859190611225565b60405180910390f35b6101a860048036038101906101a3919061126c565b610795565b6040516101b59190611225565b60405180910390f35b6101d860048036038101906101d3919061126c565b610a94565b005b6101e2610aa6565b005b6101fe60048036038101906101f9919061126c565b610aba565b60405161020b91906112a8565b60405180910390f35b61022e6004803603810190610229919061126c565b610aed565b005b610238610aff565b6040516102459190611196565b60405180910390f35b610256610b05565b60405161026391906112a8565b60405180910390f35b610274610b2e565b6040516102819190611381565b60405180910390f35b6102a4600480360381019061029f919061126c565b610c74565b6040516102b191906112a8565b60405180910390f35b6102c2610ca7565b6040516102cf9190611225565b60405180910390f35b6102e0610dbd565b6040516102ed9190611196565b60405180910390f35b6102fe610dc3565b60405161030b9190611196565b60405180910390f35b61031c610f1a565b6040516103299190611196565b60405180910390f35b61034c60048036038101906103479190611150565b610f20565b005b60076020528060005260406000206000915090505481565b60035481565b6000610376610fa3565b600060045460014361038891906113d2565b404260405160200161039b929190611452565b6040516020818303038152906040528051906020012060001c6103be91906114ad565b905060006008600083815260200190815260200160002060009054906101000a900473ffffffffffffffffffffffffffffffffffffffff1690508060096000600554815260200190815260200160002060006101000a81548173ffffffffffffffffffffffffffffffffffffffff021916908373ffffffffffffffffffffffffffffffffffffffff16021790555083156105ea57600654600160009054906101000a900473ffffffffffffffffffffffffffffffffffffffff1673ffffffffffffffffffffffffffffffffffffffff166370a0823161049b610b05565b6040518263ffffffff1660e01b81526004016104b791906112a8565b602060405180830381865afa1580156104d4573d6000803e3d6000fd5b505050506040513d601f19601f820116820180604052508101906104f891906114f3565b1015610539576040517f08c379a00000000000000000000000000000000000000000000000000000000081526004016105309061157d565b60405180910390fd5b600160009054906101000a900473ffffffffffffffffffffffffffffffffffffffff1673ffffffffffffffffffffffffffffffffffffffff166323b872dd61057f610b05565b836006546040518463ffffffff1660e01b81526004016105a19392919061159d565b6020604051808303816000875af11580156105c0573d6000803e3d6000fd5b505050506040513d601f19601f820116820180604052508101906105e491906115e9565b50610770565b600654600160009054906101000a900473ffffffffffffffffffffffffffffffffffffffff1673ffffffffffffffffffffffffffffffffffffffff166370a08231306040518263ffffffff1660e01b815260040161064891906112a8565b602060405180830381865afa158015610665573d6000803e3d6000fd5b505050506040513d601f19601f8201168201806040525081019061068991906114f3565b10156106ca576040517f08c379a00000000000000000000000000000000000000000000000000000000081526004016106c19061157d565b60405180910390fd5b600160009054906101000a900473ffffffffffffffffffffffffffffffffffffffff1673ffffffffffffffffffffffffffffffffffffffff166323b872dd30836006546040518463ffffffff1660e01b815260040161072b9392919061159d565b6020604051808303816000875af115801561074a573d6000803e3d6000fd5b505050506040513d601f19601f8201168201806040525081019061076e91906115e9565b505b6001600560008282546107839190611616565b92505081905550600192505050919050565b60006003548210156107dc576040517f08c379a00000000000000000000000000000000000000000000000000000000081526004016107d390611696565b60405180910390fd5b600073ffffffffffffffffffffffffffffffffffffffff163373ffffffffffffffffffffffffffffffffffffffff160361084b576040517f08c379a000000000000000000000000000000000000000000000000000000000815260040161084290611702565b60405180910390fd5b6000600760003373ffffffffffffffffffffffffffffffffffffffff1673ffffffffffffffffffffffffffffffffffffffff168152602001908152602001600020540361099257600260009054906101000a900473ffffffffffffffffffffffffffffffffffffffff1673ffffffffffffffffffffffffffffffffffffffff1663a1448194336004546040518363ffffffff1660e01b81526004016108f1929190611722565b600060405180830381600087803b15801561090b57600080fd5b505af115801561091f573d6000803e3d6000fd5b505050503360086000600454815260200190815260200160002060006101000a81548173ffffffffffffffffffffffffffffffffffffffff021916908373ffffffffffffffffffffffffffffffffffffffff16021790555060016004600082825461098a9190611616565b925050819055505b600160009054906101000a900473ffffffffffffffffffffffffffffffffffffffff1673ffffffffffffffffffffffffffffffffffffffff166323b872dd3330856040518463ffffffff1660e01b81526004016109f19392919061159d565b6020604051808303816000875af1158015610a10573d6000803e3d6000fd5b505050506040513d601f19601f82011682018060405250810190610a3491906115e9565b5081600760003373ffffffffffffffffffffffffffffffffffffffff1673ffffffffffffffffffffffffffffffffffffffff1681526020019081526020016000206000828254610a849190611616565b9250508190555060019050919050565b610a9c610fa3565b8060068190555050565b610aae610fa3565b610ab86000611021565b565b60096020528060005260406000206000915054906101000a900473ffffffffffffffffffffffffffffffffffffffff1681565b610af5610fa3565b8060038190555050565b60055481565b60008060009054906101000a900473ffffffffffffffffffffffffffffffffffffffff16905090565b606060005b600554811015610be757600a6009600083815260200190815260200160002060009054906101000a900473ffffffffffffffffffffffffffffffffffffffff169080600181540180825580915050600190039060005260206000200160009091909190916101000a81548173ffffffffffffffffffffffffffffffffffffffff021916908373ffffffffffffffffffffffffffffffffffffffff160217905550600181610be09190611616565b9050610b33565b50600a805480602002602001604051908101604052809291908181526020018280548015610c6a57602002820191906000526020600020905b8160009054906101000a900473ffffffffffffffffffffffffffffffffffffffff1673ffffffffffffffffffffffffffffffffffffffff1681526020019060010190808311610c20575b5050505050905090565b60086020528060005260406000206000915054906101000a900473ffffffffffffffffffffffffffffffffffffffff1681565b600080600760003373ffffffffffffffffffffffffffffffffffffffff1673ffffffffffffffffffffffffffffffffffffffff1681526020019081526020016000205403610d5e573360086000600454815260200190815260200160002060006101000a81548173ffffffffffffffffffffffffffffffffffffffff021916908373ffffffffffffffffffffffffffffffffffffffff160217905550600160046000828254610d569190611616565b925050819055505b600354600760003373ffffffffffffffffffffffffffffffffffffffff1673ffffffffffffffffffffffffffffffffffffffff1681526020019081526020016000206000828254610daf9190611616565b925050819055506001905090565b60045481565b600080600160009054906101000a900473ffffffffffffffffffffffffffffffffffffffff1673ffffffffffffffffffffffffffffffffffffffff1663dd62ed3e610e0c610b05565b306040518363ffffffff1660e01b8152600401610e2a92919061174b565b602060405180830381865afa158015610e47573d6000803e3d6000fd5b505050506040513d601f19601f82011682018060405250810190610e6b91906114f3565b905080600160009054906101000a900473ffffffffffffffffffffffffffffffffffffffff1673ffffffffffffffffffffffffffffffffffffffff166370a08231306040518263ffffffff1660e01b8152600401610ec991906112a8565b602060405180830381865afa158015610ee6573d6000803e3d6000fd5b505050506040513d601f19601f82011682018060405250810190610f0a91906114f3565b610f149190611616565b91505090565b60065481565b610f28610fa3565b600073ffffffffffffffffffffffffffffffffffffffff168173ffffffffffffffffffffffffffffffffffffffff1603610f97576040517f08c379a0000000000000000000000000000000000000000000000000000000008152600401610f8e906117e6565b60405180910390fd5b610fa081611021565b50565b610fab6110e5565b73ffffffffffffffffffffffffffffffffffffffff16610fc9610b05565b73ffffffffffffffffffffffffffffffffffffffff161461101f576040517f08c379a000000000000000000000000000000000000000000000000000000000815260040161101690611852565b60405180910390fd5b565b60008060009054906101000a900473ffffffffffffffffffffffffffffffffffffffff169050816000806101000a81548173ffffffffffffffffffffffffffffffffffffffff021916908373ffffffffffffffffffffffffffffffffffffffff1602179055508173ffffffffffffffffffffffffffffffffffffffff168173ffffffffffffffffffffffffffffffffffffffff167f8be0079c531659141344cd1fd0a4f28419497f9722a3daafe3b4186f6b6457e060405160405180910390a35050565b600033905090565b600080fd5b600073ffffffffffffffffffffffffffffffffffffffff82169050919050565b600061111d826110f2565b9050919050565b61112d81611112565b811461113857600080fd5b50565b60008135905061114a81611124565b92915050565b600060208284031215611166576111656110ed565b5b60006111748482850161113b565b91505092915050565b6000819050919050565b6111908161117d565b82525050565b60006020820190506111ab6000830184611187565b92915050565b60008115159050919050565b6111c6816111b1565b81146111d157600080fd5b50565b6000813590506111e3816111bd565b92915050565b6000602082840312156111ff576111fe6110ed565b5b600061120d848285016111d4565b91505092915050565b61121f816111b1565b82525050565b600060208201905061123a6000830184611216565b92915050565b6112498161117d565b811461125457600080fd5b50565b60008135905061126681611240565b92915050565b600060208284031215611282576112816110ed565b5b600061129084828501611257565b91505092915050565b6112a281611112565b82525050565b60006020820190506112bd6000830184611299565b92915050565b600081519050919050565b600082825260208201905092915050565b6000819050602082019050919050565b6112f881611112565b82525050565b600061130a83836112ef565b60208301905092915050565b6000602082019050919050565b600061132e826112c3565b61133881856112ce565b9350611343836112df565b8060005b8381101561137457815161135b88826112fe565b975061136683611316565b925050600181019050611347565b5085935050505092915050565b6000602082019050818103600083015261139b8184611323565b905092915050565b7f4e487b7100000000000000000000000000000000000000000000000000000000600052601160045260246000fd5b60006113dd8261117d565b91506113e88361117d565b9250828203905081811115611400576113ff6113a3565b5b92915050565b6000819050919050565b6000819050919050565b61142b61142682611406565b611410565b82525050565b6000819050919050565b61144c6114478261117d565b611431565b82525050565b600061145e828561141a565b60208201915061146e828461143b565b6020820191508190509392505050565b7f4e487b7100000000000000000000000000000000000000000000000000000000600052601260045260246000fd5b60006114b88261117d565b91506114c38361117d565b9250826114d3576114d261147e565b5b828206905092915050565b6000815190506114ed81611240565b92915050565b600060208284031215611509576115086110ed565b5b6000611517848285016114de565b91505092915050565b600082825260208201905092915050565b7f4e6f7420656e6f7567682062616c616e636520666f72207072697a6521000000600082015250565b6000611567601d83611520565b915061157282611531565b602082019050919050565b600060208201905081810360008301526115968161155a565b9050919050565b60006060820190506115b26000830186611299565b6115bf6020830185611299565b6115cc6040830184611187565b949350505050565b6000815190506115e3816111bd565b92915050565b6000602082840312156115ff576115fe6110ed565b5b600061160d848285016115d4565b91505092915050565b60006116218261117d565b915061162c8361117d565b9250828201905080821115611644576116436113a3565b5b92915050565b7f4e6f742073756666696369656e7420616d6f756e7420746f20706c6179210000600082015250565b6000611680601e83611520565b915061168b8261164a565b602082019050919050565b600060208201905081810360008301526116af81611673565b9050919050565b7f496e76616c696420616464726573730000000000000000000000000000000000600082015250565b60006116ec600f83611520565b91506116f7826116b6565b602082019050919050565b6000602082019050818103600083015261171b816116df565b9050919050565b60006040820190506117376000830185611299565b6117446020830184611187565b9392505050565b60006040820190506117606000830185611299565b61176d6020830184611299565b9392505050565b7f4f776e61626c653a206e6577206f776e657220697320746865207a65726f206160008201527f6464726573730000000000000000000000000000000000000000000000000000602082015250565b60006117d0602683611520565b91506117db82611774565b604082019050919050565b600060208201905081810360008301526117ff816117c3565b9050919050565b7f4f776e61626c653a2063616c6c6572206973206e6f7420746865206f776e6572600082015250565b600061183c602083611520565b915061184782611806565b602082019050919050565b6000602082019050818103600083015261186b8161182f565b905091905056fea264697066735822122034899460e1114abd66d68cc7c5b1cd1d91a52df1158e196f0a797a1549f7470864736f6c63430008120033",
  "linkReferences": {},
  "deployedLinkReferences": {}
}